{
  "contractName": "cruds",
  "abi": [
    {
      "inputs": [
        {
          "internalType": "string",
          "name": "userData",
          "type": "string"
        }
      ],
      "name": "addData",
      "outputs": [],
      "stateMutability": "nonpayable",
      "type": "function"
    },
    {
      "inputs": [
        {
          "internalType": "uint256",
          "name": "index",
          "type": "uint256"
        },
        {
          "internalType": "string",
          "name": "newData",
          "type": "string"
        }
      ],
      "name": "updateData",
      "outputs": [
        {
          "internalType": "bool",
          "name": "",
          "type": "bool"
        }
      ],
      "stateMutability": "nonpayable",
      "type": "function"
    },
    {
      "inputs": [],
      "name": "getdata",
      "outputs": [
        {
          "internalType": "string[]",
          "name": "",
          "type": "string[]"
        }
      ],
      "stateMutability": "view",
      "type": "function",
      "constant": true
    }
  ],
  "bytecode": "0x608060405234801561001057600080fd5b5061075d806100206000396000f3fe608060405234801561001057600080fd5b50600436106100415760003560e01c80634fa10cfc1461004657806389a8e2a714610064578063d4a2498d14610094575b600080fd5b61004e6100b0565b60405161005b919061041c565b60405180910390f35b61007e600480360381019061007991906105bd565b610189565b60405161008b9190610634565b60405180910390f35b6100ae60048036038101906100a9919061064f565b6101df565b005b60606000805480602002602001604051908101604052809291908181526020016000905b828210156101805783829060005260206000200180546100f3906106c7565b80601f016020809104026020016040519081016040528092919081815260200182805461011f906106c7565b801561016c5780601f106101415761010080835404028352916020019161016c565b820191906000526020600020905b81548152906001019060200180831161014f57829003601f168201915b5050505050815260200190600101906100d4565b50505050905090565b60008260008054905011156101d45781600084815481106101ad576101ac6106f8565b5b9060005260206000200190805190602001906101ca92919061021e565b50600190506101d9565b600090505b92915050565b60008190806001815401808255809150506001900390600052602060002001600090919091909150908051906020019061021a92919061021e565b5050565b82805461022a906106c7565b90600052602060002090601f01602090048101928261024c5760008555610293565b82601f1061026557805160ff1916838001178555610293565b82800160010185558215610293579182015b82811115610292578251825591602001919060010190610277565b5b5090506102a091906102a4565b5090565b5b808211156102bd5760008160009055506001016102a5565b5090565b600081519050919050565b600082825260208201905092915050565b6000819050602082019050919050565b600081519050919050565b600082825260208201905092915050565b60005b8381101561032757808201518184015260208101905061030c565b83811115610336576000848401525b50505050565b6000601f19601f8301169050919050565b6000610358826102ed565b61036281856102f8565b9350610372818560208601610309565b61037b8161033c565b840191505092915050565b6000610392838361034d565b905092915050565b6000602082019050919050565b60006103b2826102c1565b6103bc81856102cc565b9350836020820285016103ce856102dd565b8060005b8581101561040a57848403895281516103eb8582610386565b94506103f68361039a565b925060208a019950506001810190506103d2565b50829750879550505050505092915050565b6000602082019050818103600083015261043681846103a7565b905092915050565b6000604051905090565b600080fd5b600080fd5b6000819050919050565b61046581610452565b811461047057600080fd5b50565b6000813590506104828161045c565b92915050565b600080fd5b600080fd5b7f4e487b7100000000000000000000000000000000000000000000000000000000600052604160045260246000fd5b6104ca8261033c565b810181811067ffffffffffffffff821117156104e9576104e8610492565b5b80604052505050565b60006104fc61043e565b905061050882826104c1565b919050565b600067ffffffffffffffff82111561052857610527610492565b5b6105318261033c565b9050602081019050919050565b82818337600083830152505050565b600061056061055b8461050d565b6104f2565b90508281526020810184848401111561057c5761057b61048d565b5b61058784828561053e565b509392505050565b600082601f8301126105a4576105a3610488565b5b81356105b484826020860161054d565b91505092915050565b600080604083850312156105d4576105d3610448565b5b60006105e285828601610473565b925050602083013567ffffffffffffffff8111156106035761060261044d565b5b61060f8582860161058f565b9150509250929050565b60008115159050919050565b61062e81610619565b82525050565b60006020820190506106496000830184610625565b92915050565b60006020828403121561066557610664610448565b5b600082013567ffffffffffffffff8111156106835761068261044d565b5b61068f8482850161058f565b91505092915050565b7f4e487b7100000000000000000000000000000000000000000000000000000000600052602260045260246000fd5b600060028204905060018216806106df57607f821691505b6020821081036106f2576106f1610698565b5b50919050565b7f4e487b7100000000000000000000000000000000000000000000000000000000600052603260045260246000fdfea26469706673582212204605a4e393a1b25d0cc645b6d295b08634522032042593492dd3f9418c33ff8a64736f6c634300080e0033",
  "immutableReferences": {},
  "source": "// SPDX-License-Identifier: MIT\npragma solidity >=0.4.22 <0.9.0;\n\ncontract cruds{\n    string[] data;\n\n    function addData(string memory userData) public {\n      data.push(userData);\n  }\n\n  function updateData(uint index, string memory newData) public returns (bool) {\n      if(data.length > index){\n          data[index] = newData;\n          return true;\n      }\n      return false;\n  }\n\n  // function deleteBook(uint index) public returns (bool) {\n  //     if(data.length > index){\n  //         for(uint i=index; i < data.length-1; i++){\n  //             data[i] = data[i+1];\n  //         }\n\n  //         data.pop();\n\n  //         return true;\n  //     }\n  //     return false;\n  // }\n\n  function getdata() public view returns (string[] memory) {\n      return data;\n  }\n}\n",
  "sourcePath": "C:\\Users\\HP\\Desktop\\tcpProject\\truffle\\contracts\\cruds.sol",
  "compiler": {
    "name": "solc",
    "version": "0.8.14+commit.80d49f37.Emscripten.clang"
  },
  "schemaVersion": "3.4.11",
  "updatedAt": "2023-02-10T17:07:10.540Z",
  "networkType": "ethereum",
  "devdoc": {
    "kind": "dev",
    "methods": {},
    "version": 1
  },
  "userdoc": {
    "kind": "user",
    "methods": {},
    "version": 1
  }
}